:020000040000FA
:020000000528D1
:080008006A28A001A101A20178
:10001000A301A401A501A601A701A801A901B0019E
:10002000B101810189018914830103118316003014
:1000300088000030890000308500073081000C14F2
:10004000D8308B008C1683160317003089000313F9
:10005000FF308600FF309500831603133030960082
:1000600083160313243098001930990083129030BE
:100070009800831603174030870003138312900102
:10008000901610160030A0000030A1000030A20031
:100090000030A300D83081001030A7008501203047
:1000A000840088012708850000085F208800E6207A
:1000B000880127184C280310A70C840A51288207AE
:1000C0003F3406345B344F3466346D347D3407344A
:1000D0007F346F3475200B189D208B187E200B19F0
:1000E000B9208C1A8D2079200900B000030EB100D0
:1000F0000800310E8300B00E300E0800061808000C
:100100008B1E832888288B16091089148B100800F1
:100110008B12091089148B1008008C121A08B20077
:100120000F303205A2001A08B200F030B205320ECC
:10013000A100A401A301A0010800861EAF28061E8D
:10014000A42806080B1073280B1083200230A1008E
:100150000430A200A001A301A4010B1108000B10A0
:1001600083200130A1000430A200A001A301A4015A
:100170000800D83081000B11A403FF302402031DB6
:1001800008000930A400A303FF302302031D080068
:100190000930A300A203FF302202031D080009302A
:1001A000A200A103FF302102031D08000530A100B9
:1001B000A003FF302002031D0800A001A101A2013D
:1001C000A301A4018B120130890008000830A500AA
:1001D0000230A600000000000000A50BEA28A60BD4
:0401E000EA28080001
:02400E00D127B8
:02401000FF3F70
:00000001FF
